{
    "contractName": "Register",
    "abi": [
        {
            "inputs": [],
            "name": "getInfo",
            "outputs": [
                {
                    "internalType": "string",
                    "name": "",
                    "type": "string"
                }
            ],
            "stateMutability": "view",
            "type": "function"
        },
        {
            "inputs": [
                {
                    "internalType": "string",
                    "name": "_info",
                    "type": "string"
                }
            ],
            "name": "setInfo",
            "outputs": [],
            "stateMutability": "nonpayable",
            "type": "function"
        }
    ],
    "bytecode": "608060405234801561001057600080fd5b5061033d806100206000396000f3fe608060405234801561001057600080fd5b50600436106100365760003560e01c80635a9b0b891461003b578063937f6e7714610059575b600080fd5b61004361006e565b6040516100509190610261565b60405180910390f35b61006c6100673660046101b0565b610100565b005b60606000805461007d906102b6565b80601f01602080910402602001604051908101604052809291908181526020018280546100a9906102b6565b80156100f65780601f106100cb576101008083540402835291602001916100f6565b820191906000526020600020905b8154815290600101906020018083116100d957829003601f168201915b5050505050905090565b8051610113906000906020840190610117565b5050565b828054610123906102b6565b90600052602060002090601f016020900481019282610145576000855561018b565b82601f1061015e57805160ff191683800117855561018b565b8280016001018555821561018b579182015b8281111561018b578251825591602001919060010190610170565b5061019792915061019b565b5090565b5b80821115610197576000815560010161019c565b6000602082840312156101c257600080fd5b813567ffffffffffffffff808211156101da57600080fd5b818401915084601f8301126101ee57600080fd5b813581811115610200576102006102f1565b604051601f8201601f19908116603f01168101908382118183101715610228576102286102f1565b8160405282815287602084870101111561024157600080fd5b826020860160208301376000928101602001929092525095945050505050565b600060208083528351808285015260005b8181101561028e57858101830151858201604001528201610272565b818111156102a0576000604083870101525b50601f01601f1916929092016040019392505050565b600181811c908216806102ca57607f821691505b602082108114156102eb57634e487b7160e01b600052602260045260246000fd5b50919050565b634e487b7160e01b600052604160045260246000fdfea2646970667358221220ac53faf79a08301a8ba8c336e7ae603d622dd7b9af9ab4d7dcc3350a0f9b935964736f6c63430008050033",
    "sourcePath": "c:/Users/javier/Downloads/criptografia/2ndoParcial/votacion/app/register.sol",
    "compiler": {
        "name": "solc",
        "version": "0.8.5+commit.a4f2e591"
    },
    "functionHashes": {
        "getInfo()": "5a9b0b89",
        "setInfo(string)": "937f6e77"
    },
    "gasEstimates": {
        "creation": {
            "codeDepositCost": "165800",
            "executionCost": "208",
            "totalCost": "166008"
        },
        "external": {
            "getInfo()": "infinite",
            "setInfo(string)": "infinite"
        }
    }
}