{
    "contractName": "Votacion",
    "abi": [
        {
            "inputs": [
                {
                    "internalType": "string",
                    "name": "_nombre",
                    "type": "string"
                }
            ],
            "stateMutability": "nonpayable",
            "type": "constructor"
        },
        {
            "inputs": [
                {
                    "internalType": "string",
                    "name": "_nombre",
                    "type": "string"
                }
            ],
            "name": "agregarCandidato",
            "outputs": [],
            "stateMutability": "nonpayable",
            "type": "function"
        },
        {
            "inputs": [
                {
                    "internalType": "address",
                    "name": "_persona",
                    "type": "address"
                }
            ],
            "name": "autorizar",
            "outputs": [],
            "stateMutability": "nonpayable",
            "type": "function"
        },
        {
            "inputs": [
                {
                    "internalType": "uint256",
                    "name": "",
                    "type": "uint256"
                }
            ],
            "name": "candidatos",
            "outputs": [
                {
                    "internalType": "string",
                    "name": "nombre",
                    "type": "string"
                },
                {
                    "internalType": "uint256",
                    "name": "votoCont",
                    "type": "uint256"
                }
            ],
            "stateMutability": "view",
            "type": "function"
        },
        {
            "inputs": [],
            "name": "finVotacion",
            "outputs": [],
            "stateMutability": "nonpayable",
            "type": "function"
        },
        {
            "inputs": [],
            "name": "nombreVotacion",
            "outputs": [
                {
                    "internalType": "string",
                    "name": "",
                    "type": "string"
                }
            ],
            "stateMutability": "view",
            "type": "function"
        },
        {
            "inputs": [],
            "name": "obtenerNumCandidato",
            "outputs": [
                {
                    "internalType": "uint256",
                    "name": "",
                    "type": "uint256"
                }
            ],
            "stateMutability": "view",
            "type": "function"
        },
        {
            "inputs": [],
            "name": "propietarioSC",
            "outputs": [
                {
                    "internalType": "address",
                    "name": "",
                    "type": "address"
                }
            ],
            "stateMutability": "view",
            "type": "function"
        },
        {
            "inputs": [
                {
                    "internalType": "address",
                    "name": "",
                    "type": "address"
                }
            ],
            "name": "votantes",
            "outputs": [
                {
                    "internalType": "bool",
                    "name": "autorizado",
                    "type": "bool"
                },
                {
                    "internalType": "bool",
                    "name": "haVotado",
                    "type": "bool"
                },
                {
                    "internalType": "uint256",
                    "name": "voto",
                    "type": "uint256"
                }
            ],
            "stateMutability": "view",
            "type": "function"
        },
        {
            "inputs": [
                {
                    "internalType": "uint256",
                    "name": "_votoIndex",
                    "type": "uint256"
                }
            ],
            "name": "voto",
            "outputs": [],
            "stateMutability": "nonpayable",
            "type": "function"
        },
        {
            "inputs": [],
            "name": "votosTotales",
            "outputs": [
                {
                    "internalType": "uint256",
                    "name": "",
                    "type": "uint256"
                }
            ],
            "stateMutability": "view",
            "type": "function"
        }
    ],
    "bytecode": "608060405234801561001057600080fd5b506040516200098938038062000989833981016040819052610031916100f6565b600080546001600160a01b03191633179055805161005690600190602084019061005d565b5050610216565b828054610069906101c5565b90600052602060002090601f01602090048101928261008b57600085556100d1565b82601f106100a457805160ff19168380011785556100d1565b828001600101855582156100d1579182015b828111156100d15782518255916020019190600101906100b6565b506100dd9291506100e1565b5090565b5b808211156100dd57600081556001016100e2565b6000602080838503121561010957600080fd5b82516001600160401b038082111561012057600080fd5b818501915085601f83011261013457600080fd5b81518181111561014657610146610200565b604051601f8201601f19908116603f0116810190838211818310171561016e5761016e610200565b81604052828152888684870101111561018657600080fd5b600093505b828410156101a8578484018601518185018701529285019261018b565b828411156101b95760008684830101525b98975050505050505050565b600181811c908216806101d957607f821691505b602082108114156101fa57634e487b7160e01b600052602260045260246000fd5b50919050565b634e487b7160e01b600052604160045260246000fd5b61076380620002266000396000f3fe608060405234801561001057600080fd5b506004361061009e5760003560e01c80636f627298116100665780636f627298146101045780637c2dc5121461012f5780638f023f85146101425780639225f3b014610163578063a92284d01461016b57600080fd5b80631464f516146100a35780631dc3e30f146100bf578063503c560f146100d45780636141f2a8146100e9578063635da243146100f1575b600080fd5b6100ac60045481565b6040519081526020015b60405180910390f35b6100c76101bc565b6040516100b6919061066b565b6100e76100e2366004610554565b61024a565b005b6003546100ac565b6100e76100ff366004610524565b6102b6565b600054610117906001600160a01b031681565b6040516001600160a01b0390911681526020016100b6565b6100e761013d366004610605565b6102f1565b610155610150366004610605565b6103aa565b6040516100b692919061067e565b6100e7610466565b61019f610179366004610524565b6002602052600090815260409020805460019091015460ff808316926101009004169083565b6040805193151584529115156020840152908201526060016100b6565b600180546101c9906106c6565b80601f01602080910402602001604051908101604052809291908181526020018280546101f5906106c6565b80156102425780601f1061021757610100808354040283529160200191610242565b820191906000526020600020905b81548152906001019060200180831161022557829003601f168201915b505050505081565b60408051808201909152818152600060208083018290526003805460018101825592528251805160029093027fc2575a0e9e593c00f959f8c92f12db2869c3395a3b0502d05e2516446f71f85b01926102a6928492019061048b565b5060208201518160010155505050565b6000546001600160a01b031633146102cd57600080fd5b6001600160a01b03166000908152600260205260409020805460ff19166001179055565b33600090815260026020526040902054610100900460ff161561031357600080fd5b3360009081526002602052604090205460ff1661032f57600080fd5b3360009081526002602052604090206001808201839055815461ff00191661010017909155600380548390811061036857610368610701565b9060005260206000209060020201600101600082825461038891906106a0565b925050819055506001600460008282546103a291906106a0565b909155505050565b600381815481106103ba57600080fd5b90600052602060002090600202016000915090508060000180546103dd906106c6565b80601f0160208091040260200160405190810160405280929190818152602001828054610409906106c6565b80156104565780601f1061042b57610100808354040283529160200191610456565b820191906000526020600020905b81548152906001019060200180831161043957829003601f168201915b5050505050908060010154905082565b6000546001600160a01b0316331461047d57600080fd5b6000546001600160a01b0316ff5b828054610497906106c6565b90600052602060002090601f0160209004810192826104b957600085556104ff565b82601f106104d257805160ff19168380011785556104ff565b828001600101855582156104ff579182015b828111156104ff5782518255916020019190600101906104e4565b5061050b92915061050f565b5090565b5b8082111561050b5760008155600101610510565b60006020828403121561053657600080fd5b81356001600160a01b038116811461054d57600080fd5b9392505050565b60006020828403121561056657600080fd5b813567ffffffffffffffff8082111561057e57600080fd5b818401915084601f83011261059257600080fd5b8135818111156105a4576105a4610717565b604051601f8201601f19908116603f011681019083821181831017156105cc576105cc610717565b816040528281528760208487010111156105e557600080fd5b826020860160208301376000928101602001929092525095945050505050565b60006020828403121561061757600080fd5b5035919050565b6000815180845260005b8181101561064457602081850181015186830182015201610628565b81811115610656576000602083870101525b50601f01601f19169290920160200192915050565b60208152600061054d602083018461061e565b604081526000610691604083018561061e565b90508260208301529392505050565b600082198211156106c157634e487b7160e01b600052601160045260246000fd5b500190565b600181811c908216806106da57607f821691505b602082108114156106fb57634e487b7160e01b600052602260045260246000fd5b50919050565b634e487b7160e01b600052603260045260246000fd5b634e487b7160e01b600052604160045260246000fdfea264697066735822122029762050767c628011f49508e135b082dc95e352aa26cfa2e274d482ecd82ad064736f6c63430008050033",
    "sourcePath": "c:/Users/javier/Downloads/criptografia/2ndoParcial/votacion/app/votacion.sol",
    "compiler": {
        "name": "solc",
        "version": "0.8.5+commit.a4f2e591"
    },
    "functionHashes": {
        "agregarCandidato(string)": "503c560f",
        "autorizar(address)": "635da243",
        "candidatos(uint256)": "8f023f85",
        "finVotacion()": "9225f3b0",
        "nombreVotacion()": "1dc3e30f",
        "obtenerNumCandidato()": "6141f2a8",
        "propietarioSC()": "6f627298",
        "votantes(address)": "a92284d0",
        "voto(uint256)": "7c2dc512",
        "votosTotales()": "1464f516"
    },
    "gasEstimates": {
        "creation": {
            "codeDepositCost": "378200",
            "executionCost": "infinite",
            "totalCost": "infinite"
        },
        "external": {
            "agregarCandidato(string)": "infinite",
            "autorizar(address)": "26804",
            "candidatos(uint256)": "infinite",
            "finVotacion()": "32062",
            "nombreVotacion()": "infinite",
            "obtenerNumCandidato()": "2348",
            "propietarioSC()": "2337",
            "votantes(address)": "4767",
            "voto(uint256)": "infinite",
            "votosTotales()": "2285"
        }
    }
}